{
  "address": "0x967bb54ccE3458E8250faB98f6DBfcd079f87f96",
  "abi": [
    {
      "anonymous": false,
      "inputs": [
        {
          "indexed": false,
          "internalType": "address",
          "name": "roscaAddress",
          "type": "address"
        },
        {
          "indexed": false,
          "internalType": "address",
          "name": "roscaCreator",
          "type": "address"
        },
        {
          "components": [
            {
              "internalType": "string",
              "name": "roscaName",
              "type": "string"
            },
            {
              "internalType": "string",
              "name": "imgLink",
              "type": "string"
            },
            {
              "internalType": "string",
              "name": "authCode",
              "type": "string"
            },
            {
              "internalType": "uint256",
              "name": "goalAmount",
              "type": "uint256"
            },
            {
              "internalType": "uint256",
              "name": "ctbAmount",
              "type": "uint256"
            },
            {
              "internalType": "string",
              "name": "ctbDay",
              "type": "string"
            },
            {
              "internalType": "string",
              "name": "ctbOccur",
              "type": "string"
            },
            {
              "internalType": "string",
              "name": "disbDay",
              "type": "string"
            },
            {
              "internalType": "string",
              "name": "disbOccur",
              "type": "string"
            }
          ],
          "indexed": false,
          "internalType": "struct RoscaDetails",
          "name": "RD",
          "type": "tuple"
        }
      ],
      "name": "CreatedRosca",
      "type": "event"
    },
    {
      "inputs": [
        {
          "internalType": "contract IERC20",
          "name": "cUSDToken",
          "type": "address"
        },
        {
          "components": [
            {
              "internalType": "string",
              "name": "roscaName",
              "type": "string"
            },
            {
              "internalType": "string",
              "name": "imgLink",
              "type": "string"
            },
            {
              "internalType": "string",
              "name": "authCode",
              "type": "string"
            },
            {
              "internalType": "uint256",
              "name": "goalAmount",
              "type": "uint256"
            },
            {
              "internalType": "uint256",
              "name": "ctbAmount",
              "type": "uint256"
            },
            {
              "internalType": "string",
              "name": "ctbDay",
              "type": "string"
            },
            {
              "internalType": "string",
              "name": "ctbOccur",
              "type": "string"
            },
            {
              "internalType": "string",
              "name": "disbDay",
              "type": "string"
            },
            {
              "internalType": "string",
              "name": "disbOccur",
              "type": "string"
            }
          ],
          "internalType": "struct RoscaDetails",
          "name": "rD",
          "type": "tuple"
        }
      ],
      "name": "createRosca",
      "outputs": [],
      "stateMutability": "nonpayable",
      "type": "function"
    },
    {
      "inputs": [],
      "name": "returnSpaces",
      "outputs": [
        {
          "internalType": "contract Rosca[]",
          "name": "",
          "type": "address[]"
        }
      ],
      "stateMutability": "view",
      "type": "function"
    },
    {
      "inputs": [
        {
          "internalType": "uint256",
          "name": "",
          "type": "uint256"
        }
      ],
      "name": "roscas",
      "outputs": [
        {
          "internalType": "contract Rosca",
          "name": "",
          "type": "address"
        }
      ],
      "stateMutability": "view",
      "type": "function"
    }
  ],
  "transactionHash": "0x2cdd2200fbe6333fe3e744a7c11a8e64393e2bf7ea558abb090fee35c6f71437",
  "args": [],
  "numDeployments": 10,
  "solcInputHash": "f05ae1fbbabb4acbb7578248ee3a360d",
  "bytecode": "0x608060405234801561001057600080fd5b5061577a806100206000396000f3fe60806040523480156200001157600080fd5b5060043610620000465760003560e01c80632fd76fe5146200004b57806387e168991462000081578063cf8d4e3d14620000a3575b600080fd5b620000696004803603810190620000639190620002d6565b620000c3565b60405162000078919062000393565b60405180910390f35b6200008b62000103565b6040516200009a91906200047e565b60405180910390f35b620000c16004803603810190620000bb919062000837565b62000193565b005b60008181548110620000d457600080fd5b906000526020600020016000915054906101000a900473ffffffffffffffffffffffffffffffffffffffff1681565b606060008054806020026020016040519081016040528092919081815260200182805480156200018957602002820191906000526020600020905b8160009054906101000a900473ffffffffffffffffffffffffffffffffffffffff1673ffffffffffffffffffffffffffffffffffffffff16815260200190600101908083116200013e575b5050505050905090565b6000823383604051620001a69062000279565b620001b49392919062000aa0565b604051809103906000f080158015620001d1573d6000803e3d6000fd5b5090506000819080600181540180825580915050600190039060005260206000200160009091909190916101000a81548173ffffffffffffffffffffffffffffffffffffffff021916908373ffffffffffffffffffffffffffffffffffffffff1602179055507faf7c8d4cffff8eaaf44f10d975f1c71cc0df6e55c89b6c15106c0ba1f66e7d3e8133846040516200026c9392919062000af5565b60405180910390a1505050565b614c0b8062000b3a83390190565b6000604051905090565b600080fd5b600080fd5b6000819050919050565b620002b0816200029b565b8114620002bc57600080fd5b50565b600081359050620002d081620002a5565b92915050565b600060208284031215620002ef57620002ee62000291565b5b6000620002ff84828501620002bf565b91505092915050565b600073ffffffffffffffffffffffffffffffffffffffff82169050919050565b6000819050919050565b6000620003536200034d620003478462000308565b62000328565b62000308565b9050919050565b6000620003678262000332565b9050919050565b60006200037b826200035a565b9050919050565b6200038d816200036e565b82525050565b6000602082019050620003aa600083018462000382565b92915050565b600081519050919050565b600082825260208201905092915050565b6000819050602082019050919050565b620003e7816200036e565b82525050565b6000620003fb8383620003dc565b60208301905092915050565b6000602082019050919050565b60006200042182620003b0565b6200042d8185620003bb565b93506200043a83620003cc565b8060005b8381101562000471578151620004558882620003ed565b9750620004628362000407565b9250506001810190506200043e565b5085935050505092915050565b600060208201905081810360008301526200049a818462000414565b905092915050565b6000620004af8262000308565b9050919050565b6000620004c382620004a2565b9050919050565b620004d581620004b6565b8114620004e157600080fd5b50565b600081359050620004f581620004ca565b92915050565b600080fd5b6000601f19601f8301169050919050565b7f4e487b7100000000000000000000000000000000000000000000000000000000600052604160045260246000fd5b6200054b8262000500565b810181811067ffffffffffffffff821117156200056d576200056c62000511565b5b80604052505050565b60006200058262000287565b905062000590828262000540565b919050565b600080fd5b600080fd5b600080fd5b600067ffffffffffffffff821115620005c257620005c162000511565b5b620005cd8262000500565b9050602081019050919050565b82818337600083830152505050565b600062000600620005fa84620005a4565b62000576565b9050828152602081018484840111156200061f576200061e6200059f565b5b6200062c848285620005da565b509392505050565b600082601f8301126200064c576200064b6200059a565b5b81356200065e848260208601620005e9565b91505092915050565b60006101208284031215620006815762000680620004fb565b5b6200068e61012062000576565b9050600082013567ffffffffffffffff811115620006b157620006b062000595565b5b620006bf8482850162000634565b600083015250602082013567ffffffffffffffff811115620006e657620006e562000595565b5b620006f48482850162000634565b602083015250604082013567ffffffffffffffff8111156200071b576200071a62000595565b5b620007298482850162000634565b60408301525060606200073f84828501620002bf565b60608301525060806200075584828501620002bf565b60808301525060a082013567ffffffffffffffff8111156200077c576200077b62000595565b5b6200078a8482850162000634565b60a08301525060c082013567ffffffffffffffff811115620007b157620007b062000595565b5b620007bf8482850162000634565b60c08301525060e082013567ffffffffffffffff811115620007e657620007e562000595565b5b620007f48482850162000634565b60e08301525061010082013567ffffffffffffffff8111156200081c576200081b62000595565b5b6200082a8482850162000634565b6101008301525092915050565b6000806040838503121562000851576200085062000291565b5b60006200086185828601620004e4565b925050602083013567ffffffffffffffff81111562000885576200088462000296565b5b620008938582860162000667565b9150509250929050565b6000620008aa8262000332565b9050919050565b6000620008be826200089d565b9050919050565b620008d081620008b1565b82525050565b6000620008e38262000308565b9050919050565b620008f581620008d6565b82525050565b600081519050919050565b600082825260208201905092915050565b60005b83811015620009375780820151818401526020810190506200091a565b8381111562000947576000848401525b50505050565b60006200095a82620008fb565b62000966818562000906565b93506200097881856020860162000917565b620009838162000500565b840191505092915050565b62000999816200029b565b82525050565b6000610120830160008301518482036000860152620009bf82826200094d565b91505060208301518482036020860152620009db82826200094d565b91505060408301518482036040860152620009f782826200094d565b915050606083015162000a0e60608601826200098e565b50608083015162000a2360808601826200098e565b5060a083015184820360a086015262000a3d82826200094d565b91505060c083015184820360c086015262000a5982826200094d565b91505060e083015184820360e086015262000a7582826200094d565b91505061010083015184820361010086015262000a9382826200094d565b9150508091505092915050565b600060608201905062000ab76000830186620008c5565b62000ac66020830185620008ea565b818103604083015262000ada81846200099f565b9050949350505050565b62000aef81620004a2565b82525050565b600060608201905062000b0c600083018662000ae4565b62000b1b602083018562000ae4565b818103604083015262000b2f81846200099f565b905094935050505056fe60806040526000601760006101000a81548160ff021916908360038111156200002d576200002c62000e00565b5b02179055506000601760016101000a81548160ff021916908360028111156200005b576200005a62000e00565b5b02179055503480156200006d57600080fd5b5060405162004c0b38038062004c0b83398181016040528101906200009391906200129f565b826000806101000a81548173ffffffffffffffffffffffffffffffffffffffff021916908373ffffffffffffffffffffffffffffffffffffffff1602179055506000601181905550600060128190555080600860008201518160000190805190602001906200010492919062000d50565b5060208201518160010190805190602001906200012392919062000d50565b5060408201518160020190805190602001906200014292919062000d50565b50606082015181600301556080820151816004015560a08201518160050190805190602001906200017592919062000d50565b5060c08201518160060190805190602001906200019492919062000d50565b5060e0820151816007019080519060200190620001b392919062000d50565b50610100820151816008019080519060200190620001d392919062000d50565b509050506002829080600181540180825580915050600190039060005260206000200160009091909190916101000a81548173ffffffffffffffffffffffffffffffffffffffff021916908373ffffffffffffffffffffffffffffffffffffffff1602179055506001829080600181540180825580915050600190039060005260206000200160009091909190916101000a81548173ffffffffffffffffffffffffffffffffffffffff021916908373ffffffffffffffffffffffffffffffffffffffff1602179055506001600560008473ffffffffffffffffffffffffffffffffffffffff1673ffffffffffffffffffffffffffffffffffffffff16815260200190815260200160002060006101000a81548160ff021916908315150217905550620003056200030e60201b60201c565b50505062001a59565b60006200032560086005016200067560201b60201c565b905060006200033e60086007016200067560201b60201c565b90506200035182620008de60201b60201c565b6015819055506200036881620008de60201b60201c565b6016819055506000600381111562000385576200038462000e00565b5b601760009054906101000a900460ff166003811115620003aa57620003a962000e00565b5b1415620004da576001601481905550600180601454620003cb919062001349565b81548110620003df57620003de62001384565b5b9060005260206000200160009054906101000a900473ffffffffffffffffffffffffffffffffffffffff16600360006101000a81548173ffffffffffffffffffffffffffffffffffffffff021916908373ffffffffffffffffffffffffffffffffffffffff1602179055506001601760006101000a81548160ff0219169083600381111562000473576200047262000e00565b5b02179055506000601760016101000a81548160ff02191690836002811115620004a157620004a062000e00565b5b0217905550620004b782620008de60201b60201c565b601581905550620004ce81620008de60201b60201c565b6016819055506200060a565b60018054905060145410620004f25760006014819055505b600160146000828254620005079190620013b3565b9250508190555060018060145462000520919062001349565b8154811062000534576200053362001384565b5b9060005260206000200160009054906101000a900473ffffffffffffffffffffffffffffffffffffffff16600360006101000a81548173ffffffffffffffffffffffffffffffffffffffff021916908373ffffffffffffffffffffffffffffffffffffffff1602179055506000601760016101000a81548160ff02191690836002811115620005c857620005c762000e00565b5b021790555062093a8060156000828254620005e49190620013b3565b9250508190555062093a8060166000828254620006029190620013b3565b925050819055505b7fc641121d80663aede9804c3bfaba45a29038d67ec846178c73e6d86afeabc936601454601554601654600360009054906101000a900473ffffffffffffffffffffffffffffffffffffffff1660405162000669949392919062001432565b60405180910390a15050565b6000806040518060e001604052806040518060400160405280600681526020017f4d6f6e646179000000000000000000000000000000000000000000000000000081525081526020016040518060400160405280600781526020017f547565736461790000000000000000000000000000000000000000000000000081525081526020016040518060400160405280600981526020017f5765646e6573646179000000000000000000000000000000000000000000000081525081526020016040518060400160405280600881526020017f546875727364617900000000000000000000000000000000000000000000000081525081526020016040518060400160405280600681526020017f467269646179000000000000000000000000000000000000000000000000000081525081526020016040518060400160405280600881526020017f536174757264617900000000000000000000000000000000000000000000000081525081526020016040518060400160405280600681526020017f53756e6461790000000000000000000000000000000000000000000000000000815250815250905060008360405160200162000835919062001596565b60405160208183030381529060405280519060200120905060005b6007811015620008d55782816007811062000870576200086f62001384565b5b602002015160405160200162000887919062001606565b60405160208183030381529060405280519060200120821415620008bf57600181620008b49190620013b3565b9350505050620008d9565b8080620008cc906200162a565b91505062000850565b5050505b919050565b60008060008060006201518042620008f79190620016a7565b90506000600160076003846200090e9190620013b3565b6200091a9190620016df565b620009269190620013b3565b90506200093e82620009e760201b620014091760201c565b80975081965082955050505060006007828960076200095e9190620013b3565b6200096a919062001349565b620009769190620016df565b86620009839190620013b3565b905062015180620009a185878462000bbe60201b620015a81760201c565b620009ad919062001717565b9650428711620009dc57600781620009c69190620013b3565b905062093a8087620009d99190620013b3565b96505b505050505050919050565b600080600080849050600062253d8c62010bd98362000a07919062001782565b62000a13919062001782565b9050600062023ab182600462000a2a919062001820565b62000a36919062001947565b9050600460038262023ab162000a4d919062001820565b62000a59919062001782565b62000a65919062001947565b8262000a729190620019bb565b9150600062164b0960018462000a89919062001782565b610fa062000a98919062001820565b62000aa4919062001947565b9050601f6004826105b562000aba919062001820565b62000ac6919062001947565b8462000ad39190620019bb565b62000adf919062001782565b9250600061098f84605062000af5919062001820565b62000b01919062001947565b9050600060508261098f62000b17919062001820565b62000b23919062001947565b8562000b309190620019bb565b9050600b8262000b41919062001947565b945084600c62000b52919062001820565b60028362000b61919062001782565b62000b6d9190620019bb565b9150848360318662000b809190620019bb565b606462000b8e919062001820565b62000b9a919062001782565b62000ba6919062001782565b92508298508197508096505050505050509193909250565b60006107b284101562000bd057600080fd5b600084905060008490506000849050600062253d8c60046064600c600e8762000bfa9190620019bb565b62000c06919062001947565b6113248862000c16919062001782565b62000c22919062001782565b62000c2e919062001947565b600362000c3c919062001820565b62000c48919062001947565b600c80600c600e8862000c5c9190620019bb565b62000c68919062001947565b62000c74919062001820565b60028762000c839190620019bb565b62000c8f9190620019bb565b61016f62000c9e919062001820565b62000caa919062001947565b6004600c600e8862000cbd9190620019bb565b62000cc9919062001947565b6112c08962000cd9919062001782565b62000ce5919062001782565b6105b562000cf4919062001820565b62000d00919062001947565b617d4b8662000d109190620019bb565b62000d1c919062001782565b62000d28919062001782565b62000d349190620019bb565b62000d409190620019bb565b9050809450505050509392505050565b82805462000d5e90620014ae565b90600052602060002090601f01602090048101928262000d82576000855562000dce565b82601f1062000d9d57805160ff191683800117855562000dce565b8280016001018555821562000dce579182015b8281111562000dcd57825182559160200191906001019062000db0565b5b50905062000ddd919062000de1565b5090565b5b8082111562000dfc57600081600090555060010162000de2565b5090565b7f4e487b7100000000000000000000000000000000000000000000000000000000600052602160045260246000fd5b6000604051905090565b600080fd5b600080fd5b600073ffffffffffffffffffffffffffffffffffffffff82169050919050565b600062000e708262000e43565b9050919050565b600062000e848262000e63565b9050919050565b62000e968162000e77565b811462000ea257600080fd5b50565b60008151905062000eb68162000e8b565b92915050565b600062000ec98262000e43565b9050919050565b62000edb8162000ebc565b811462000ee757600080fd5b50565b60008151905062000efb8162000ed0565b92915050565b600080fd5b6000601f19601f8301169050919050565b7f4e487b7100000000000000000000000000000000000000000000000000000000600052604160045260246000fd5b62000f518262000f06565b810181811067ffffffffffffffff8211171562000f735762000f7262000f17565b5b80604052505050565b600062000f8862000e2f565b905062000f96828262000f46565b919050565b600080fd5b600080fd5b600080fd5b600067ffffffffffffffff82111562000fc85762000fc762000f17565b5b62000fd38262000f06565b9050602081019050919050565b60005b838110156200100057808201518184015260208101905062000fe3565b8381111562001010576000848401525b50505050565b60006200102d620010278462000faa565b62000f7c565b9050828152602081018484840111156200104c576200104b62000fa5565b5b6200105984828562000fe0565b509392505050565b600082601f83011262001079576200107862000fa0565b5b81516200108b84826020860162001016565b91505092915050565b6000819050919050565b620010a98162001094565b8114620010b557600080fd5b50565b600081519050620010c9816200109e565b92915050565b60006101208284031215620010e957620010e862000f01565b5b620010f661012062000f7c565b9050600082015167ffffffffffffffff81111562001119576200111862000f9b565b5b620011278482850162001061565b600083015250602082015167ffffffffffffffff8111156200114e576200114d62000f9b565b5b6200115c8482850162001061565b602083015250604082015167ffffffffffffffff81111562001183576200118262000f9b565b5b620011918482850162001061565b6040830152506060620011a784828501620010b8565b6060830152506080620011bd84828501620010b8565b60808301525060a082015167ffffffffffffffff811115620011e457620011e362000f9b565b5b620011f28482850162001061565b60a08301525060c082015167ffffffffffffffff81111562001219576200121862000f9b565b5b620012278482850162001061565b60c08301525060e082015167ffffffffffffffff8111156200124e576200124d62000f9b565b5b6200125c8482850162001061565b60e08301525061010082015167ffffffffffffffff81111562001284576200128362000f9b565b5b620012928482850162001061565b6101008301525092915050565b600080600060608486031215620012bb57620012ba62000e39565b5b6000620012cb8682870162000ea5565b9350506020620012de8682870162000eea565b925050604084015167ffffffffffffffff81111562001302576200130162000e3e565b5b6200131086828701620010cf565b9150509250925092565b7f4e487b7100000000000000000000000000000000000000000000000000000000600052601160045260246000fd5b6000620013568262001094565b9150620013638362001094565b9250828210156200137957620013786200131a565b5b828203905092915050565b7f4e487b7100000000000000000000000000000000000000000000000000000000600052603260045260246000fd5b6000620013c08262001094565b9150620013cd8362001094565b9250827fffffffffffffffffffffffffffffffffffffffffffffffffffffffffffffffff038211156200140557620014046200131a565b5b828201905092915050565b6200141b8162001094565b82525050565b6200142c8162000ebc565b82525050565b600060808201905062001449600083018762001410565b62001458602083018662001410565b62001467604083018562001410565b62001476606083018462001421565b95945050505050565b7f4e487b7100000000000000000000000000000000000000000000000000000000600052602260045260246000fd5b60006002820490506001821680620014c757607f821691505b60208210811415620014de57620014dd6200147f565b5b50919050565b600082825260208201905092915050565b60008190508160005260206000209050919050565b600081546200151981620014ae565b620015258186620014e4565b9450600182166000811462001543576001811462001556576200158d565b60ff19831686526020860193506200158d565b6200156185620014f5565b60005b83811015620015855781548189015260018201915060208101905062001564565b808801955050505b50505092915050565b60006020820190508181036000830152620015b281846200150a565b905092915050565b600081519050919050565b6000620015d282620015ba565b620015de8185620014e4565b9350620015f081856020860162000fe0565b620015fb8162000f06565b840191505092915050565b60006020820190508181036000830152620016228184620015c5565b905092915050565b6000620016378262001094565b91507fffffffffffffffffffffffffffffffffffffffffffffffffffffffffffffffff8214156200166d576200166c6200131a565b5b600182019050919050565b7f4e487b7100000000000000000000000000000000000000000000000000000000600052601260045260246000fd5b6000620016b48262001094565b9150620016c18362001094565b925082620016d457620016d362001678565b5b828204905092915050565b6000620016ec8262001094565b9150620016f98362001094565b9250826200170c576200170b62001678565b5b828206905092915050565b6000620017248262001094565b9150620017318362001094565b9250817fffffffffffffffffffffffffffffffffffffffffffffffffffffffffffffffff04831182151516156200176d576200176c6200131a565b5b828202905092915050565b6000819050919050565b60006200178f8262001778565b91506200179c8362001778565b9250817f7fffffffffffffffffffffffffffffffffffffffffffffffffffffffffffffff03831360008312151615620017da57620017d96200131a565b5b817f80000000000000000000000000000000000000000000000000000000000000000383126000831216156200181557620018146200131a565b5b828201905092915050565b60006200182d8262001778565b91506200183a8362001778565b9250827f7fffffffffffffffffffffffffffffffffffffffffffffffffffffffffffffff04821160008413600084131616156200187c576200187b6200131a565b5b817f80000000000000000000000000000000000000000000000000000000000000000583126000841260008413161615620018bc57620018bb6200131a565b5b827f80000000000000000000000000000000000000000000000000000000000000000582126000841360008412161615620018fc57620018fb6200131a565b5b827f7fffffffffffffffffffffffffffffffffffffffffffffffffffffffffffffff05821260008412600084121616156200193c576200193b6200131a565b5b828202905092915050565b6000620019548262001778565b9150620019618362001778565b92508262001974576200197362001678565b5b600160000383147f800000000000000000000000000000000000000000000000000000000000000083141615620019b057620019af6200131a565b5b828205905092915050565b6000620019c88262001778565b9150620019d58362001778565b9250827f80000000000000000000000000000000000000000000000000000000000000000182126000841215161562001a135762001a126200131a565b5b827f7fffffffffffffffffffffffffffffffffffffffffffffffffffffffffffffff01821360008412161562001a4e5762001a4d6200131a565b5b828203905092915050565b6131a28062001a696000396000f3fe6080604052600436106100ab5760003560e01c806369105f971161006457806369105f97146101be5780638ce65f30146101e95780639a71f55c146102125780639eab525314610230578063a88765c91461025b578063fbbf93a014610286576100b2565b80630dcfb2b8146100b457806324600fc3146100d057806342e94c90146100ee5780634a92041d1461012b5780635a8a68dc146101565780635daf08ca14610181576100b2565b366100b257005b005b6100ce60048036038101906100c99190611e64565b6102bb565b005b6100d8610672565b6040516100e59190611eac565b60405180910390f35b3480156100fa57600080fd5b5061011560048036038101906101109190611f25565b610798565b6040516101229190611f61565b60405180910390f35b34801561013757600080fd5b506101406107b0565b60405161014d9190611ff3565b60405180910390f35b34801561016257600080fd5b5061016b6107c3565b6040516101789190612056565b60405180910390f35b34801561018d57600080fd5b506101a860048036038101906101a39190611e64565b6107d6565b6040516101b59190612092565b60405180910390f35b3480156101ca57600080fd5b506101d3610815565b6040516101e09190611f61565b60405180910390f35b3480156101f557600080fd5b50610210600480360381019061020b9190612112565b610905565b005b61021a610aeb565b6040516102279190611eac565b60405180910390f35b34801561023c57600080fd5b50610245610eed565b604051610252919061221d565b60405180910390f35b34801561026757600080fd5b50610270610f7b565b60405161027d9190611f61565b60405180910390f35b34801561029257600080fd5b5061029b611030565b6040516102b29b9a999897969594939291906122e7565b60405180910390f35b60008060028111156102d0576102cf611f7c565b5b601760019054906101000a900460ff1660028111156102f2576102f1611f7c565b5b146102fc57600080fd5b60008060009054906101000a900473ffffffffffffffffffffffffffffffffffffffff1673ffffffffffffffffffffffffffffffffffffffff166370a08231336040518263ffffffff1660e01b815260040161035891906123bc565b60206040518083038186803b15801561037057600080fd5b505afa158015610384573d6000803e3d6000fd5b505050506040513d601f19601f820116820180604052508101906103a891906123ec565b90506103b381611707565b600860030154601254106103fc576040517f08c379a00000000000000000000000000000000000000000000000000000000081526004016103f390612465565b60405180910390fd5b82811161043e576040517f08c379a0000000000000000000000000000000000000000000000000000000008152600401610435906124d1565b60405180910390fd5b600860040154600460003373ffffffffffffffffffffffffffffffffffffffff1673ffffffffffffffffffffffffffffffffffffffff16815260200190815260200160002054106104c4576040517f08c379a00000000000000000000000000000000000000000000000000000000081526004016104bb90612563565b60405180910390fd5b60008054906101000a900473ffffffffffffffffffffffffffffffffffffffff1673ffffffffffffffffffffffffffffffffffffffff166323b872dd3330866040518463ffffffff1660e01b815260040161052193929190612583565b602060405180830381600087803b15801561053b57600080fd5b505af115801561054f573d6000803e3d6000fd5b505050506040513d601f19601f8201168201806040525081019061057391906125e6565b506105c683600460003373ffffffffffffffffffffffffffffffffffffffff1673ffffffffffffffffffffffffffffffffffffffff168152602001908152602001600020546117a090919063ffffffff16565b600460003373ffffffffffffffffffffffffffffffffffffffff1673ffffffffffffffffffffffffffffffffffffffff1681526020019081526020016000208190555061061e836012546117a090919063ffffffff16565b60128190555061062c610f7b565b601181905550600860030154601254141561066d576001601760016101000a81548160ff0219169083600281111561066757610666611f7c565b5b02179055505b505050565b600060028081111561068757610686611f7c565b5b601760019054906101000a900460ff1660028111156106a9576106a8611f7c565b5b14156106ea576040517f08c379a00000000000000000000000000000000000000000000000000000000081526004016106e19061265f565b60405180910390fd5b600360009054906101000a900473ffffffffffffffffffffffffffffffffffffffff1673ffffffffffffffffffffffffffffffffffffffff163373ffffffffffffffffffffffffffffffffffffffff161461077a576040517f08c379a0000000000000000000000000000000000000000000000000000000008152600401610771906126cb565b60405180910390fd5b610782610aeb565b156107905760019050610795565b600090505b90565b60046020528060005260406000206000915090505481565b601760009054906101000a900460ff1681565b601760019054906101000a900460ff1681565b600181815481106107e657600080fd5b906000526020600020016000915054906101000a900473ffffffffffffffffffffffffffffffffffffffff1681565b60008060009054906101000a900473ffffffffffffffffffffffffffffffffffffffff1673ffffffffffffffffffffffffffffffffffffffff166370a082316001600081548110610869576108686126eb565b5b9060005260206000200160009054906101000a900473ffffffffffffffffffffffffffffffffffffffff166040518263ffffffff1660e01b81526004016108b09190612779565b60206040518083038186803b1580156108c857600080fd5b505afa1580156108dc573d6000803e3d6000fd5b505050506040513d601f19601f8201168201806040525081019061090091906123ec565b905090565b600860020160405160200161091a919061288a565b6040516020818303038152906040528051906020012082826040516020016109439291906128e8565b6040516020818303038152906040528051906020012014610999576040517f08c379a000000000000000000000000000000000000000000000000000000000815260040161099090612958565b60405180910390fd5b60001515600560003373ffffffffffffffffffffffffffffffffffffffff1673ffffffffffffffffffffffffffffffffffffffff16815260200190815260200160002060009054906101000a900460ff16151514610a2c576040517f08c379a0000000000000000000000000000000000000000000000000000000008152600401610a23906129c4565b60405180910390fd5b6001339080600181540180825580915050600190039060005260206000200160009091909190916101000a81548173ffffffffffffffffffffffffffffffffffffffff021916908373ffffffffffffffffffffffffffffffffffffffff1602179055506001600560003373ffffffffffffffffffffffffffffffffffffffff1673ffffffffffffffffffffffffffffffffffffffff16815260200190815260200160002060006101000a81548160ff0219169083151502179055505050565b600080610af6610f7b565b905060086003015460125414610b41576040517f08c379a0000000000000000000000000000000000000000000000000000000008152600401610b3890612a30565b60405180910390fd5b600860030154811015610b89576040517f08c379a0000000000000000000000000000000000000000000000000000000008152600401610b8090612a9c565b60405180910390fd5b60056000600360009054906101000a900473ffffffffffffffffffffffffffffffffffffffff1673ffffffffffffffffffffffffffffffffffffffff1673ffffffffffffffffffffffffffffffffffffffff16815260200190815260200160002060009054906101000a900460ff16610c37576040517f08c379a0000000000000000000000000000000000000000000000000000000008152600401610c2e90612b2e565b60405180910390fd5b60008054906101000a900473ffffffffffffffffffffffffffffffffffffffff1673ffffffffffffffffffffffffffffffffffffffff1663a9059cbb600360009054906101000a900473ffffffffffffffffffffffffffffffffffffffff166008600301546040518363ffffffff1660e01b8152600401610cb9929190612b4e565b602060405180830381600087803b158015610cd357600080fd5b505af1158015610ce7573d6000803e3d6000fd5b505050506040513d601f19601f82011682018060405250810190610d0b91906125e6565b15610ee857600060128190555060005b600180549050811015610dbe5760006004600060018481548110610d4257610d416126eb565b5b9060005260206000200160009054906101000a900473ffffffffffffffffffffffffffffffffffffffff1673ffffffffffffffffffffffffffffffffffffffff1673ffffffffffffffffffffffffffffffffffffffff168152602001908152602001600020819055508080610db690612ba6565b915050610d1b565b50600160066000600360009054906101000a900473ffffffffffffffffffffffffffffffffffffffff1673ffffffffffffffffffffffffffffffffffffffff1673ffffffffffffffffffffffffffffffffffffffff16815260200190815260200160002060006101000a81548160ff0219169083151502179055506002601760016101000a81548160ff02191690836002811115610e5f57610e5e611f7c565b5b0217905550610e6c610f7b565b6011819055507ff21642b842e81992004c95ed649c9b4e65bd1e3b1520b0a44b261d7594522288600360009054906101000a900473ffffffffffffffffffffffffffffffffffffffff16600860030154601454604051610ece93929190612bef565b60405180910390a1610ede6117b6565b6001915050610eea565b505b90565b60606001805480602002602001604051908101604052809291908181526020018280548015610f7157602002820191906000526020600020905b8160009054906101000a900473ffffffffffffffffffffffffffffffffffffffff1673ffffffffffffffffffffffffffffffffffffffff1681526020019060010190808311610f27575b5050505050905090565b60008030905060008054906101000a900473ffffffffffffffffffffffffffffffffffffffff1673ffffffffffffffffffffffffffffffffffffffff166370a08231826040518263ffffffff1660e01b8152600401610fda91906123bc565b60206040518083038186803b158015610ff257600080fd5b505afa158015611006573d6000803e3d6000fd5b505050506040513d601f19601f8201168201806040525081019061102a91906123ec565b91505090565b606080600060608060608060008060008060086000018054611051906127c3565b80601f016020809104026020016040519081016040528092919081815260200182805461107d906127c3565b80156110ca5780601f1061109f576101008083540402835291602001916110ca565b820191906000526020600020905b8154815290600101906020018083116110ad57829003601f168201915b50505050509a50600860010180546110e1906127c3565b80601f016020809104026020016040519081016040528092919081815260200182805461110d906127c3565b801561115a5780601f1061112f5761010080835404028352916020019161115a565b820191906000526020600020905b81548152906001019060200180831161113d57829003601f168201915b50505050509950600860030154985060086005018054611179906127c3565b80601f01602080910402602001604051908101604052809291908181526020018280546111a5906127c3565b80156111f25780601f106111c7576101008083540402835291602001916111f2565b820191906000526020600020905b8154815290600101906020018083116111d557829003601f168201915b5050505050975060086006018054611209906127c3565b80601f0160208091040260200160405190810160405280929190818152602001828054611235906127c3565b80156112825780601f1061125757610100808354040283529160200191611282565b820191906000526020600020905b81548152906001019060200180831161126557829003601f168201915b5050505050965060086007018054611299906127c3565b80601f01602080910402602001604051908101604052809291908181526020018280546112c5906127c3565b80156113125780601f106112e757610100808354040283529160200191611312565b820191906000526020600020905b8154815290600101906020018083116112f557829003601f168201915b50505050509550600880018054611328906127c3565b80601f0160208091040260200160405190810160405280929190818152602001828054611354906127c3565b80156113a15780601f10611376576101008083540402835291602001916113a1565b820191906000526020600020905b81548152906001019060200180831161138457829003601f168201915b50505050509450601454925060026000815481106113c2576113c16126eb565b5b9060005260206000200160009054906101000a900473ffffffffffffffffffffffffffffffffffffffff16915060018054905093506011549050909192939495969798999a565b600080600080849050600062253d8c62010bd9836114279190612c30565b6114319190612c30565b9050600062023ab18260046114469190612cc4565b6114509190612e0a565b9050600460038262023ab16114659190612cc4565b61146f9190612c30565b6114799190612e0a565b826114849190612e74565b9150600062164b096001846114999190612c30565b610fa06114a69190612cc4565b6114b09190612e0a565b9050601f6004826105b56114c49190612cc4565b6114ce9190612e0a565b846114d99190612e74565b6114e39190612c30565b9250600061098f8460506114f79190612cc4565b6115019190612e0a565b9050600060508261098f6115159190612cc4565b61151f9190612e0a565b8561152a9190612e74565b9050600b826115399190612e0a565b945084600c6115489190612cc4565b6002836115559190612c30565b61155f9190612e74565b915084836031866115709190612e74565b606461157c9190612cc4565b6115869190612c30565b6115909190612c30565b92508298508197508096505050505050509193909250565b60006107b28410156115b957600080fd5b600084905060008490506000849050600062253d8c60046064600c600e876115e19190612e74565b6115eb9190612e0a565b611324886115f99190612c30565b6116039190612c30565b61160d9190612e0a565b60036116199190612cc4565b6116239190612e0a565b600c80600c600e886116359190612e74565b61163f9190612e0a565b6116499190612cc4565b6002876116569190612e74565b6116609190612e74565b61016f61166d9190612cc4565b6116779190612e0a565b6004600c600e886116889190612e74565b6116929190612e0a565b6112c0896116a09190612c30565b6116aa9190612c30565b6105b56116b79190612cc4565b6116c19190612e0a565b617d4b866116cf9190612e74565b6116d99190612c30565b6116e39190612c30565b6116ed9190612e74565b6116f79190612e74565b9050809450505050509392505050565b61179d8160405160240161171b9190611f61565b6040516020818303038152906040527ff82c50f1000000000000000000000000000000000000000000000000000000007bffffffffffffffffffffffffffffffffffffffffffffffffffffffff19166020820180517bffffffffffffffffffffffffffffffffffffffffffffffffffffffff8381831617835250505050611ac9565b50565b600081836117ae9190612f08565b905092915050565b60006117c56008600501611af2565b905060006117d66008600701611af2565b90506117e182611d4c565b6015819055506117f081611d4c565b6016819055506000600381111561180a57611809611f7c565b5b601760009054906101000a900460ff16600381111561182c5761182b611f7c565b5b141561193f57600160148190555060018060145461184a9190612f5e565b8154811061185b5761185a6126eb565b5b9060005260206000200160009054906101000a900473ffffffffffffffffffffffffffffffffffffffff16600360006101000a81548173ffffffffffffffffffffffffffffffffffffffff021916908373ffffffffffffffffffffffffffffffffffffffff1602179055506001601760006101000a81548160ff021916908360038111156118ec576118eb611f7c565b5b02179055506000601760016101000a81548160ff0219169083600281111561191757611916611f7c565b5b021790555061192582611d4c565b60158190555061193481611d4c565b601681905550611a60565b600180549050601454106119565760006014819055505b6001601460008282546119699190612f08565b925050819055506001806014546119809190612f5e565b81548110611991576119906126eb565b5b9060005260206000200160009054906101000a900473ffffffffffffffffffffffffffffffffffffffff16600360006101000a81548173ffffffffffffffffffffffffffffffffffffffff021916908373ffffffffffffffffffffffffffffffffffffffff1602179055506000601760016101000a81548160ff02191690836002811115611a2257611a21611f7c565b5b021790555062093a8060156000828254611a3c9190612f08565b9250508190555062093a8060166000828254611a589190612f08565b925050819055505b7fc641121d80663aede9804c3bfaba45a29038d67ec846178c73e6d86afeabc936601454601554601654600360009054906101000a900473ffffffffffffffffffffffffffffffffffffffff16604051611abd9493929190612f92565b60405180910390a15050565b60008151905060006a636f6e736f6c652e6c6f679050602083016000808483855afa5050505050565b6000806040518060e001604052806040518060400160405280600681526020017f4d6f6e646179000000000000000000000000000000000000000000000000000081525081526020016040518060400160405280600781526020017f547565736461790000000000000000000000000000000000000000000000000081525081526020016040518060400160405280600981526020017f5765646e6573646179000000000000000000000000000000000000000000000081525081526020016040518060400160405280600881526020017f546875727364617900000000000000000000000000000000000000000000000081525081526020016040518060400160405280600681526020017f467269646179000000000000000000000000000000000000000000000000000081525081526020016040518060400160405280600881526020017f536174757264617900000000000000000000000000000000000000000000000081525081526020016040518060400160405280600681526020017f53756e64617900000000000000000000000000000000000000000000000000008152508152509050600083604051602001611cb0919061306c565b60405160208183030381529060405280519060200120905060005b6007811015611d4357828160078110611ce757611ce66126eb565b5b6020020151604051602001611cfc919061308e565b60405160208183030381529060405280519060200120821415611d3057600181611d269190612f08565b9350505050611d47565b8080611d3b90612ba6565b915050611ccb565b5050505b919050565b60008060008060006201518042611d6391906130b0565b9050600060016007600384611d789190612f08565b611d8291906130e1565b611d8c9190612f08565b9050611d9782611409565b8097508196508295505050506000600782896007611db59190612f08565b611dbf9190612f5e565b611dc991906130e1565b86611dd49190612f08565b905062015180611de58587846115a8565b611def9190613112565b9650428711611e1957600781611e059190612f08565b905062093a8087611e169190612f08565b96505b505050505050919050565b600080fd5b600080fd5b6000819050919050565b611e4181611e2e565b8114611e4c57600080fd5b50565b600081359050611e5e81611e38565b92915050565b600060208284031215611e7a57611e79611e24565b5b6000611e8884828501611e4f565b91505092915050565b60008115159050919050565b611ea681611e91565b82525050565b6000602082019050611ec16000830184611e9d565b92915050565b600073ffffffffffffffffffffffffffffffffffffffff82169050919050565b6000611ef282611ec7565b9050919050565b611f0281611ee7565b8114611f0d57600080fd5b50565b600081359050611f1f81611ef9565b92915050565b600060208284031215611f3b57611f3a611e24565b5b6000611f4984828501611f10565b91505092915050565b611f5b81611e2e565b82525050565b6000602082019050611f766000830184611f52565b92915050565b7f4e487b7100000000000000000000000000000000000000000000000000000000600052602160045260246000fd5b60048110611fbc57611fbb611f7c565b5b50565b6000819050611fcd82611fab565b919050565b6000611fdd82611fbf565b9050919050565b611fed81611fd2565b82525050565b60006020820190506120086000830184611fe4565b92915050565b6003811061201f5761201e611f7c565b5b50565b60008190506120308261200e565b919050565b600061204082612022565b9050919050565b61205081612035565b82525050565b600060208201905061206b6000830184612047565b92915050565b600061207c82611ec7565b9050919050565b61208c81612071565b82525050565b60006020820190506120a76000830184612083565b92915050565b600080fd5b600080fd5b600080fd5b60008083601f8401126120d2576120d16120ad565b5b8235905067ffffffffffffffff8111156120ef576120ee6120b2565b5b60208301915083600182028301111561210b5761210a6120b7565b5b9250929050565b6000806020838503121561212957612128611e24565b5b600083013567ffffffffffffffff81111561214757612146611e29565b5b612153858286016120bc565b92509250509250929050565b600081519050919050565b600082825260208201905092915050565b6000819050602082019050919050565b61219481612071565b82525050565b60006121a6838361218b565b60208301905092915050565b6000602082019050919050565b60006121ca8261215f565b6121d4818561216a565b93506121df8361217b565b8060005b838110156122105781516121f7888261219a565b9750612202836121b2565b9250506001810190506121e3565b5085935050505092915050565b6000602082019050818103600083015261223781846121bf565b905092915050565b600081519050919050565b600082825260208201905092915050565b60005b8381101561227957808201518184015260208101905061225e565b83811115612288576000848401525b50505050565b6000601f19601f8301169050919050565b60006122aa8261223f565b6122b4818561224a565b93506122c481856020860161225b565b6122cd8161228e565b840191505092915050565b6122e181611ee7565b82525050565b6000610160820190508181036000830152612302818e61229f565b90508181036020830152612316818d61229f565b9050612325604083018c611f52565b8181036060830152612337818b61229f565b9050818103608083015261234b818a61229f565b905081810360a083015261235f818961229f565b905081810360c0830152612373818861229f565b905061238260e0830187611f52565b612390610100830186611f52565b61239e6101208301856122d8565b6123ac610140830184611f52565b9c9b505050505050505050505050565b60006020820190506123d160008301846122d8565b92915050565b6000815190506123e681611e38565b92915050565b60006020828403121561240257612401611e24565b5b6000612410848285016123d7565b91505092915050565b7f526f756e642069732066756c6c792066756e6465640000000000000000000000600082015250565b600061244f60158361224a565b915061245a82612419565b602082019050919050565b6000602082019050818103600083015261247e81612442565b9050919050565b7f496e73756666696369656e742066756e64730000000000000000000000000000600082015250565b60006124bb60128361224a565b91506124c682612485565b602082019050919050565b600060208201905081810360008301526124ea816124ae565b9050919050565b7f596f7520686176652066756c6c7920636f6e747269627574656420746f20746860008201527f697320526f756e64000000000000000000000000000000000000000000000000602082015250565b600061254d60288361224a565b9150612558826124f1565b604082019050919050565b6000602082019050818103600083015261257c81612540565b9050919050565b600060608201905061259860008301866122d8565b6125a560208301856122d8565b6125b26040830184611f52565b949350505050565b6125c381611e91565b81146125ce57600080fd5b50565b6000815190506125e0816125ba565b92915050565b6000602082840312156125fc576125fb611e24565b5b600061260a848285016125d1565b91505092915050565b7f416c72656164792050617965644f757400000000000000000000000000000000600082015250565b600061264960108361224a565b915061265482612613565b602082019050919050565b600060208201905081810360008301526126788161263c565b9050919050565b7f54686973206973206e6f7420796f757220726f756e6400000000000000000000600082015250565b60006126b560168361224a565b91506126c08261267f565b602082019050919050565b600060208201905081810360008301526126e4816126a8565b9050919050565b7f4e487b7100000000000000000000000000000000000000000000000000000000600052603260045260246000fd5b6000819050919050565b600061273f61273a61273584611ec7565b61271a565b611ec7565b9050919050565b600061275182612724565b9050919050565b600061276382612746565b9050919050565b61277381612758565b82525050565b600060208201905061278e600083018461276a565b92915050565b7f4e487b7100000000000000000000000000000000000000000000000000000000600052602260045260246000fd5b600060028204905060018216806127db57607f821691505b602082108114156127ef576127ee612794565b5b50919050565b60008190508160005260206000209050919050565b60008154612817816127c3565b612821818661224a565b9450600182166000811461283c576001811461284e57612881565b60ff1983168652602086019350612881565b612857856127f5565b60005b838110156128795781548189015260018201915060208101905061285a565b808801955050505b50505092915050565b600060208201905081810360008301526128a4818461280a565b905092915050565b82818337600083830152505050565b60006128c7838561224a565b93506128d48385846128ac565b6128dd8361228e565b840190509392505050565b600060208201905081810360008301526129038184866128bb565b90509392505050565b7f496e76616c696420617574686f72697a6174696f6e20636f6465210000000000600082015250565b6000612942601b8361224a565b915061294d8261290c565b602082019050919050565b6000602082019050818103600083015261297181612935565b9050919050565b7f596f752061726520616c72656164792061204d656d6265720000000000000000600082015250565b60006129ae60188361224a565b91506129b982612978565b602082019050919050565b600060208201905081810360008301526129dd816129a1565b9050919050565b7f54686520726f756e64206973206e6f742066756c6c792066756e646564000000600082015250565b6000612a1a601d8361224a565b9150612a25826129e4565b602082019050919050565b60006020820190508181036000830152612a4981612a0d565b9050919050565b7f596f7572206368616d6161206973206c6f77206f6e2066756e64730000000000600082015250565b6000612a86601b8361224a565b9150612a9182612a50565b602082019050919050565b60006020820190508181036000830152612ab581612a79565b9050919050565b7f447565206d656d626572206973206e6f742061206d656d62657221205265617260008201527f793f210000000000000000000000000000000000000000000000000000000000602082015250565b6000612b1860238361224a565b9150612b2382612abc565b604082019050919050565b60006020820190508181036000830152612b4781612b0b565b9050919050565b6000604082019050612b63600083018561276a565b612b706020830184611f52565b9392505050565b7f4e487b7100000000000000000000000000000000000000000000000000000000600052601160045260246000fd5b6000612bb182611e2e565b91507fffffffffffffffffffffffffffffffffffffffffffffffffffffffffffffffff821415612be457612be3612b77565b5b600182019050919050565b6000606082019050612c04600083018661276a565b612c116020830185611f52565b612c1e6040830184611f52565b949350505050565b6000819050919050565b6000612c3b82612c26565b9150612c4683612c26565b9250817f7fffffffffffffffffffffffffffffffffffffffffffffffffffffffffffffff03831360008312151615612c8157612c80612b77565b5b817f8000000000000000000000000000000000000000000000000000000000000000038312600083121615612cb957612cb8612b77565b5b828201905092915050565b6000612ccf82612c26565b9150612cda83612c26565b9250827f7fffffffffffffffffffffffffffffffffffffffffffffffffffffffffffffff0482116000841360008413161615612d1957612d18612b77565b5b817f80000000000000000000000000000000000000000000000000000000000000000583126000841260008413161615612d5657612d55612b77565b5b827f80000000000000000000000000000000000000000000000000000000000000000582126000841360008412161615612d9357612d92612b77565b5b827f7fffffffffffffffffffffffffffffffffffffffffffffffffffffffffffffff0582126000841260008412161615612dd057612dcf612b77565b5b828202905092915050565b7f4e487b7100000000000000000000000000000000000000000000000000000000600052601260045260246000fd5b6000612e1582612c26565b9150612e2083612c26565b925082612e3057612e2f612ddb565b5b600160000383147f800000000000000000000000000000000000000000000000000000000000000083141615612e6957612e68612b77565b5b828205905092915050565b6000612e7f82612c26565b9150612e8a83612c26565b9250827f800000000000000000000000000000000000000000000000000000000000000001821260008412151615612ec557612ec4612b77565b5b827f7fffffffffffffffffffffffffffffffffffffffffffffffffffffffffffffff018213600084121615612efd57612efc612b77565b5b828203905092915050565b6000612f1382611e2e565b9150612f1e83611e2e565b9250827fffffffffffffffffffffffffffffffffffffffffffffffffffffffffffffffff03821115612f5357612f52612b77565b5b828201905092915050565b6000612f6982611e2e565b9150612f7483611e2e565b925082821015612f8757612f86612b77565b5b828203905092915050565b6000608082019050612fa76000830187611f52565b612fb46020830186611f52565b612fc16040830185611f52565b612fce6060830184612083565b95945050505050565b60008190508160005260206000209050919050565b60008154612ff9816127c3565b613003818661224a565b9450600182166000811461301e576001811461303057613063565b60ff1983168652602086019350613063565b61303985612fd7565b60005b8381101561305b5781548189015260018201915060208101905061303c565b808801955050505b50505092915050565b600060208201905081810360008301526130868184612fec565b905092915050565b600060208201905081810360008301526130a8818461229f565b905092915050565b60006130bb82611e2e565b91506130c683611e2e565b9250826130d6576130d5612ddb565b5b828204905092915050565b60006130ec82611e2e565b91506130f783611e2e565b92508261310757613106612ddb565b5b828206905092915050565b600061311d82611e2e565b915061312883611e2e565b9250817fffffffffffffffffffffffffffffffffffffffffffffffffffffffffffffffff048311821515161561316157613160612b77565b5b82820290509291505056fea2646970667358221220a92193bd7a15900341dadd7182f9d008387d7e81ffbe1b28bbe802c58d9b5f9464736f6c63430008090033a2646970667358221220412c225b33ee69be7babf8bc3ccc885ebbc662053be6e96840f4178a4ec2580064736f6c63430008090033",
  "devdoc": {
    "kind": "dev",
    "methods": {},
    "version": 1
  },
  "userdoc": {
    "kind": "user",
    "methods": {},
    "version": 1
  },
  "storageLayout": {
    "storage": [
      {
        "astId": 1282,
        "contract": "contracts/Spaces.sol:Spaces",
        "label": "roscas",
        "offset": 0,
        "slot": "0",
        "type": "t_array(t_contract(Rosca)1266)dyn_storage"
      }
    ],
    "types": {
      "t_array(t_contract(Rosca)1266)dyn_storage": {
        "base": "t_contract(Rosca)1266",
        "encoding": "dynamic_array",
        "label": "contract Rosca[]",
        "numberOfBytes": "32"
      },
      "t_contract(Rosca)1266": {
        "encoding": "inplace",
        "label": "contract Rosca",
        "numberOfBytes": "20"
      }
    }
  }
}